{
  "_format": "hh-sol-artifact-1",
  "contractName": "CrawlRegistry",
  "sourceName": "contracts/Contract.sol",
  "abi": [
    {
      "inputs": [],
      "stateMutability": "nonpayable",
      "type": "constructor"
    },
    {
      "anonymous": false,
      "inputs": [
        {
          "indexed": true,
          "internalType": "address",
          "name": "owner",
          "type": "address"
        },
        {
          "indexed": true,
          "internalType": "address",
          "name": "approved",
          "type": "address"
        },
        {
          "indexed": true,
          "internalType": "uint256",
          "name": "tokenId",
          "type": "uint256"
        }
      ],
      "name": "Approval",
      "type": "event"
    },
    {
      "anonymous": false,
      "inputs": [
        {
          "indexed": true,
          "internalType": "address",
          "name": "owner",
          "type": "address"
        },
        {
          "indexed": true,
          "internalType": "address",
          "name": "operator",
          "type": "address"
        },
        {
          "indexed": false,
          "internalType": "bool",
          "name": "approved",
          "type": "bool"
        }
      ],
      "name": "ApprovalForAll",
      "type": "event"
    },
    {
      "anonymous": false,
      "inputs": [
        {
          "indexed": false,
          "internalType": "uint256",
          "name": "_fromTokenId",
          "type": "uint256"
        },
        {
          "indexed": false,
          "internalType": "uint256",
          "name": "_toTokenId",
          "type": "uint256"
        }
      ],
      "name": "BatchMetadataUpdate",
      "type": "event"
    },
    {
      "anonymous": false,
      "inputs": [
        {
          "indexed": false,
          "internalType": "uint256",
          "name": "id",
          "type": "uint256"
        },
        {
          "indexed": true,
          "internalType": "address",
          "name": "creator",
          "type": "address"
        },
        {
          "indexed": false,
          "internalType": "uint256",
          "name": "amount",
          "type": "uint256"
        }
      ],
      "name": "BountyCreated",
      "type": "event"
    },
    {
      "anonymous": false,
      "inputs": [
        {
          "indexed": false,
          "internalType": "uint256",
          "name": "id",
          "type": "uint256"
        }
      ],
      "name": "BountyDistributed",
      "type": "event"
    },
    {
      "anonymous": false,
      "inputs": [
        {
          "indexed": false,
          "internalType": "uint256",
          "name": "bountyId",
          "type": "uint256"
        },
        {
          "indexed": false,
          "internalType": "address",
          "name": "contributor",
          "type": "address"
        }
      ],
      "name": "ContributorAdded",
      "type": "event"
    },
    {
      "anonymous": false,
      "inputs": [
        {
          "indexed": true,
          "internalType": "uint256",
          "name": "tokenId",
          "type": "uint256"
        },
        {
          "indexed": true,
          "internalType": "address",
          "name": "owner",
          "type": "address"
        }
      ],
      "name": "MetadataMinted",
      "type": "event"
    },
    {
      "anonymous": false,
      "inputs": [
        {
          "indexed": false,
          "internalType": "uint256",
          "name": "_tokenId",
          "type": "uint256"
        }
      ],
      "name": "MetadataUpdate",
      "type": "event"
    },
    {
      "anonymous": false,
      "inputs": [
        {
          "indexed": true,
          "internalType": "address",
          "name": "previousOwner",
          "type": "address"
        },
        {
          "indexed": true,
          "internalType": "address",
          "name": "newOwner",
          "type": "address"
        }
      ],
      "name": "OwnershipTransferred",
      "type": "event"
    },
    {
      "anonymous": false,
      "inputs": [
        {
          "indexed": true,
          "internalType": "address",
          "name": "from",
          "type": "address"
        },
        {
          "indexed": true,
          "internalType": "address",
          "name": "to",
          "type": "address"
        },
        {
          "indexed": true,
          "internalType": "uint256",
          "name": "tokenId",
          "type": "uint256"
        }
      ],
      "name": "Transfer",
      "type": "event"
    },
    {
      "inputs": [
        {
          "internalType": "uint256",
          "name": "bountyId",
          "type": "uint256"
        },
        {
          "internalType": "address",
          "name": "contributor",
          "type": "address"
        }
      ],
      "name": "addContributor",
      "outputs": [],
      "stateMutability": "nonpayable",
      "type": "function"
    },
    {
      "inputs": [],
      "name": "admin",
      "outputs": [
        {
          "internalType": "address",
          "name": "",
          "type": "address"
        }
      ],
      "stateMutability": "view",
      "type": "function"
    },
    {
      "inputs": [
        {
          "internalType": "address",
          "name": "to",
          "type": "address"
        },
        {
          "internalType": "uint256",
          "name": "tokenId",
          "type": "uint256"
        }
      ],
      "name": "approve",
      "outputs": [],
      "stateMutability": "nonpayable",
      "type": "function"
    },
    {
      "inputs": [
        {
          "internalType": "address",
          "name": "owner",
          "type": "address"
        }
      ],
      "name": "balanceOf",
      "outputs": [
        {
          "internalType": "uint256",
          "name": "",
          "type": "uint256"
        }
      ],
      "stateMutability": "view",
      "type": "function"
    },
    {
      "inputs": [
        {
          "internalType": "uint256",
          "name": "",
          "type": "uint256"
        }
      ],
      "name": "bounties",
      "outputs": [
        {
          "internalType": "uint256",
          "name": "amount",
          "type": "uint256"
        },
        {
          "internalType": "address",
          "name": "creator",
          "type": "address"
        },
        {
          "internalType": "bool",
          "name": "distributed",
          "type": "bool"
        }
      ],
      "stateMutability": "view",
      "type": "function"
    },
    {
      "inputs": [
        {
          "internalType": "address",
          "name": "",
          "type": "address"
        },
        {
          "internalType": "uint256",
          "name": "",
          "type": "uint256"
        }
      ],
      "name": "crawlMetadataByCreator",
      "outputs": [
        {
          "internalType": "uint256",
          "name": "",
          "type": "uint256"
        }
      ],
      "stateMutability": "view",
      "type": "function"
    },
    {
      "inputs": [
        {
          "internalType": "uint256",
          "name": "",
          "type": "uint256"
        }
      ],
      "name": "crawls",
      "outputs": [
        {
          "internalType": "string",
          "name": "source_url",
          "type": "string"
        },
        {
          "internalType": "bytes32",
          "name": "content_hash",
          "type": "bytes32"
        },
        {
          "internalType": "string",
          "name": "content_link",
          "type": "string"
        },
        {
          "internalType": "string",
          "name": "embed_vector_id",
          "type": "string"
        },
        {
          "internalType": "uint256",
          "name": "created_at",
          "type": "uint256"
        },
        {
          "internalType": "address",
          "name": "owner",
          "type": "address"
        }
      ],
      "stateMutability": "view",
      "type": "function"
    },
    {
      "inputs": [],
      "name": "createBounty",
      "outputs": [
        {
          "internalType": "uint256",
          "name": "",
          "type": "uint256"
        }
      ],
      "stateMutability": "payable",
      "type": "function"
    },
    {
      "inputs": [
        {
          "internalType": "uint256",
          "name": "bountyId",
          "type": "uint256"
        }
      ],
      "name": "distributeBounty",
      "outputs": [],
      "stateMutability": "nonpayable",
      "type": "function"
    },
    {
      "inputs": [
        {
          "internalType": "uint256",
          "name": "metadataId",
          "type": "uint256"
        }
      ],
      "name": "donateToCreator",
      "outputs": [],
      "stateMutability": "payable",
      "type": "function"
    },
    {
      "inputs": [
        {
          "internalType": "uint256",
          "name": "tokenId",
          "type": "uint256"
        }
      ],
      "name": "getApproved",
      "outputs": [
        {
          "internalType": "address",
          "name": "",
          "type": "address"
        }
      ],
      "stateMutability": "view",
      "type": "function"
    },
    {
      "inputs": [
        {
          "internalType": "uint256",
          "name": "bountyId",
          "type": "uint256"
        }
      ],
      "name": "getBounty",
      "outputs": [
        {
          "internalType": "uint256",
          "name": "amount",
          "type": "uint256"
        },
        {
          "internalType": "address",
          "name": "creator",
          "type": "address"
        },
        {
          "internalType": "address[]",
          "name": "contributors",
          "type": "address[]"
        },
        {
          "internalType": "bool",
          "name": "distributed",
          "type": "bool"
        }
      ],
      "stateMutability": "view",
      "type": "function"
    },
    {
      "inputs": [
        {
          "internalType": "uint256",
          "name": "tokenId",
          "type": "uint256"
        }
      ],
      "name": "getMetadata",
      "outputs": [
        {
          "components": [
            {
              "internalType": "string",
              "name": "source_url",
              "type": "string"
            },
            {
              "internalType": "bytes32",
              "name": "content_hash",
              "type": "bytes32"
            },
            {
              "internalType": "string",
              "name": "content_link",
              "type": "string"
            },
            {
              "internalType": "string",
              "name": "embed_vector_id",
              "type": "string"
            },
            {
              "internalType": "uint256",
              "name": "created_at",
              "type": "uint256"
            },
            {
              "internalType": "string[]",
              "name": "tags",
              "type": "string[]"
            },
            {
              "internalType": "address",
              "name": "owner",
              "type": "address"
            }
          ],
          "internalType": "struct CrawlRegistry.CrawlMetadata",
          "name": "",
          "type": "tuple"
        }
      ],
      "stateMutability": "view",
      "type": "function"
    },
    {
      "inputs": [
        {
          "internalType": "address",
          "name": "creator",
          "type": "address"
        }
      ],
      "name": "getMetadataByCreator",
      "outputs": [
        {
          "internalType": "uint256[]",
          "name": "",
          "type": "uint256[]"
        }
      ],
      "stateMutability": "view",
      "type": "function"
    },
    {
      "inputs": [
        {
          "internalType": "address",
          "name": "owner",
          "type": "address"
        },
        {
          "internalType": "address",
          "name": "operator",
          "type": "address"
        }
      ],
      "name": "isApprovedForAll",
      "outputs": [
        {
          "internalType": "bool",
          "name": "",
          "type": "bool"
        }
      ],
      "stateMutability": "view",
      "type": "function"
    },
    {
      "inputs": [
        {
          "internalType": "string",
          "name": "source_url",
          "type": "string"
        },
        {
          "internalType": "bytes32",
          "name": "content_hash",
          "type": "bytes32"
        },
        {
          "internalType": "string",
          "name": "content_link",
          "type": "string"
        },
        {
          "internalType": "string",
          "name": "embed_vector_id",
          "type": "string"
        },
        {
          "internalType": "uint256",
          "name": "created_at",
          "type": "uint256"
        },
        {
          "internalType": "string[]",
          "name": "tags",
          "type": "string[]"
        },
        {
          "internalType": "string",
          "name": "tokenURI",
          "type": "string"
        }
      ],
      "name": "mintMetadataNFT",
      "outputs": [
        {
          "internalType": "uint256",
          "name": "",
          "type": "uint256"
        }
      ],
      "stateMutability": "nonpayable",
      "type": "function"
    },
    {
      "inputs": [],
      "name": "name",
      "outputs": [
        {
          "internalType": "string",
          "name": "",
          "type": "string"
        }
      ],
      "stateMutability": "view",
      "type": "function"
    },
    {
      "inputs": [],
      "name": "nextBountyId",
      "outputs": [
        {
          "internalType": "uint256",
          "name": "",
          "type": "uint256"
        }
      ],
      "stateMutability": "view",
      "type": "function"
    },
    {
      "inputs": [],
      "name": "owner",
      "outputs": [
        {
          "internalType": "address",
          "name": "",
          "type": "address"
        }
      ],
      "stateMutability": "view",
      "type": "function"
    },
    {
      "inputs": [
        {
          "internalType": "uint256",
          "name": "tokenId",
          "type": "uint256"
        }
      ],
      "name": "ownerOf",
      "outputs": [
        {
          "internalType": "address",
          "name": "",
          "type": "address"
        }
      ],
      "stateMutability": "view",
      "type": "function"
    },
    {
      "inputs": [],
      "name": "renounceOwnership",
      "outputs": [],
      "stateMutability": "nonpayable",
      "type": "function"
    },
    {
      "inputs": [
        {
          "internalType": "address",
          "name": "from",
          "type": "address"
        },
        {
          "internalType": "address",
          "name": "to",
          "type": "address"
        },
        {
          "internalType": "uint256",
          "name": "tokenId",
          "type": "uint256"
        }
      ],
      "name": "safeTransferFrom",
      "outputs": [],
      "stateMutability": "nonpayable",
      "type": "function"
    },
    {
      "inputs": [
        {
          "internalType": "address",
          "name": "from",
          "type": "address"
        },
        {
          "internalType": "address",
          "name": "to",
          "type": "address"
        },
        {
          "internalType": "uint256",
          "name": "tokenId",
          "type": "uint256"
        },
        {
          "internalType": "bytes",
          "name": "data",
          "type": "bytes"
        }
      ],
      "name": "safeTransferFrom",
      "outputs": [],
      "stateMutability": "nonpayable",
      "type": "function"
    },
    {
      "inputs": [
        {
          "internalType": "address",
          "name": "operator",
          "type": "address"
        },
        {
          "internalType": "bool",
          "name": "approved",
          "type": "bool"
        }
      ],
      "name": "setApprovalForAll",
      "outputs": [],
      "stateMutability": "nonpayable",
      "type": "function"
    },
    {
      "inputs": [
        {
          "internalType": "bytes4",
          "name": "interfaceId",
          "type": "bytes4"
        }
      ],
      "name": "supportsInterface",
      "outputs": [
        {
          "internalType": "bool",
          "name": "",
          "type": "bool"
        }
      ],
      "stateMutability": "view",
      "type": "function"
    },
    {
      "inputs": [],
      "name": "symbol",
      "outputs": [
        {
          "internalType": "string",
          "name": "",
          "type": "string"
        }
      ],
      "stateMutability": "view",
      "type": "function"
    },
    {
      "inputs": [
        {
          "internalType": "uint256",
          "name": "tokenId",
          "type": "uint256"
        }
      ],
      "name": "tokenURI",
      "outputs": [
        {
          "internalType": "string",
          "name": "",
          "type": "string"
        }
      ],
      "stateMutability": "view",
      "type": "function"
    },
    {
      "inputs": [
        {
          "internalType": "address",
          "name": "from",
          "type": "address"
        },
        {
          "internalType": "address",
          "name": "to",
          "type": "address"
        },
        {
          "internalType": "uint256",
          "name": "tokenId",
          "type": "uint256"
        }
      ],
      "name": "transferFrom",
      "outputs": [],
      "stateMutability": "nonpayable",
      "type": "function"
    },
    {
      "inputs": [
        {
          "internalType": "address",
          "name": "newOwner",
          "type": "address"
        }
      ],
      "name": "transferOwnership",
      "outputs": [],
      "stateMutability": "nonpayable",
      "type": "function"
    }
  ],
  "bytecode": "0x60806040523480156200001157600080fd5b506040518060400160405280601081526020017f437261776c4d657461646174614e4654000000000000000000000000000000008152506040518060400160405280600681526020017f434d444e46540000000000000000000000000000000000000000000000000000815250816000908051906020019062000096929190620001e7565b508060019080519060200190620000af929190620001e7565b505050620000d2620000c66200011960201b60201c565b6200012160201b60201c565b33600d60006101000a81548173ffffffffffffffffffffffffffffffffffffffff021916908373ffffffffffffffffffffffffffffffffffffffff160217905550620002fc565b600033905090565b6000600760009054906101000a900473ffffffffffffffffffffffffffffffffffffffff16905081600760006101000a81548173ffffffffffffffffffffffffffffffffffffffff021916908373ffffffffffffffffffffffffffffffffffffffff1602179055508173ffffffffffffffffffffffffffffffffffffffff168173ffffffffffffffffffffffffffffffffffffffff167f8be0079c531659141344cd1fd0a4f28419497f9722a3daafe3b4186f6b6457e060405160405180910390a35050565b828054620001f590620002c6565b90600052602060002090601f01602090048101928262000219576000855562000265565b82601f106200023457805160ff191683800117855562000265565b8280016001018555821562000265579182015b828111156200026457825182559160200191906001019062000247565b5b50905062000274919062000278565b5090565b5b808211156200029357600081600090555060010162000279565b5090565b7f4e487b7100000000000000000000000000000000000000000000000000000000600052602260045260246000fd5b60006002820490506001821680620002df57607f821691505b60208210811415620002f657620002f562000297565b5b50919050565b614d23806200030c6000396000f3fe6080604052600436106101c25760003560e01c806395d89b41116100f7578063dc2f874411610095578063f2fde38b11610064578063f2fde38b1461069e578063f851a440146106c7578063f98fef9c146106f2578063fd14fad41461072f576101c2565b8063dc2f8744146105a0578063e985e9c5146105df578063ee8c4bbf1461061c578063ef2279741461065c576101c2565b8063af3595ba116100d1578063af3595ba146104e8578063b88d4fde14610511578063c4db6a301461053a578063c87b56dd14610563576101c2565b806395d89b4114610457578063a22cb46514610482578063a574cea4146104ab576101c2565b806342842e0e11610164578063715018a61161013e578063715018a61461039b5780638a6fcb93146103b25780638da5cb5b146103ef57806390488f8a1461041a576101c2565b806342842e0e146102f85780636352211e1461032157806370a082311461035e576101c2565b8063095ea7b3116101a0578063095ea7b31461026c57806323b872dd1461029557806328b6f1d8146102be5780632bef7c7f146102da576101c2565b806301ffc9a7146101c757806306fdde0314610204578063081812fc1461022f575b600080fd5b3480156101d357600080fd5b506101ee60048036038101906101e99190613314565b61075a565b6040516101fb919061335c565b60405180910390f35b34801561021057600080fd5b506102196107bb565b6040516102269190613410565b60405180910390f35b34801561023b57600080fd5b5061025660048036038101906102519190613468565b61084d565b60405161026391906134d6565b60405180910390f35b34801561027857600080fd5b50610293600480360381019061028e919061351d565b610893565b005b3480156102a157600080fd5b506102bc60048036038101906102b7919061355d565b6109ab565b005b6102d860048036038101906102d39190613468565b610a0b565b005b6102e2610b01565b6040516102ef91906135bf565b60405180910390f35b34801561030457600080fd5b5061031f600480360381019061031a919061355d565b610c36565b005b34801561032d57600080fd5b5061034860048036038101906103439190613468565b610c56565b60405161035591906134d6565b60405180910390f35b34801561036a57600080fd5b50610385600480360381019061038091906135da565b610cdd565b60405161039291906135bf565b60405180910390f35b3480156103a757600080fd5b506103b0610d95565b005b3480156103be57600080fd5b506103d960048036038101906103d49190613858565b610da9565b6040516103e691906135bf565b60405180910390f35b3480156103fb57600080fd5b50610404610fbe565b60405161041191906134d6565b60405180910390f35b34801561042657600080fd5b50610441600480360381019061043c919061351d565b610fe8565b60405161044e91906135bf565b60405180910390f35b34801561046357600080fd5b5061046c611019565b6040516104799190613410565b60405180910390f35b34801561048e57600080fd5b506104a960048036038101906104a491906139b2565b6110ab565b005b3480156104b757600080fd5b506104d260048036038101906104cd9190613468565b6110c1565b6040516104df9190613bdc565b60405180910390f35b3480156104f457600080fd5b5061050f600480360381019061050a9190613bfe565b61145f565b005b34801561051d57600080fd5b5061053860048036038101906105339190613cdf565b6115fb565b005b34801561054657600080fd5b50610561600480360381019061055c9190613468565b61165d565b005b34801561056f57600080fd5b5061058a60048036038101906105859190613468565b611975565b6040516105979190613410565b60405180910390f35b3480156105ac57600080fd5b506105c760048036038101906105c29190613468565b611a88565b6040516105d693929190613d62565b60405180910390f35b3480156105eb57600080fd5b5061060660048036038101906106019190613d99565b611adf565b604051610613919061335c565b60405180910390f35b34801561062857600080fd5b50610643600480360381019061063e9190613468565b611b73565b6040516106539493929190613e88565b60405180910390f35b34801561066857600080fd5b50610683600480360381019061067e9190613468565b611c68565b60405161069596959493929190613ee3565b60405180910390f35b3480156106aa57600080fd5b506106c560048036038101906106c091906135da565b611e5c565b005b3480156106d357600080fd5b506106dc611ee0565b6040516106e991906134d6565b60405180910390f35b3480156106fe57600080fd5b50610719600480360381019061071491906135da565b611f06565b6040516107269190614008565b60405180910390f35b34801561073b57600080fd5b50610744611f9d565b60405161075191906135bf565b60405180910390f35b6000634906490660e01b7bffffffffffffffffffffffffffffffffffffffffffffffffffffffff1916827bffffffffffffffffffffffffffffffffffffffffffffffffffffffff191614806107b457506107b382611fa3565b5b9050919050565b6060600080546107ca90614059565b80601f01602080910402602001604051908101604052809291908181526020018280546107f690614059565b80156108435780601f1061081857610100808354040283529160200191610843565b820191906000526020600020905b81548152906001019060200180831161082657829003601f168201915b5050505050905090565b600061085882612085565b6004600083815260200190815260200160002060009054906101000a900473ffffffffffffffffffffffffffffffffffffffff169050919050565b600061089e82610c56565b90508073ffffffffffffffffffffffffffffffffffffffff168373ffffffffffffffffffffffffffffffffffffffff16141561090f576040517f08c379a0000000000000000000000000000000000000000000000000000000008152600401610906906140fd565b60405180910390fd5b8073ffffffffffffffffffffffffffffffffffffffff1661092e6120d0565b73ffffffffffffffffffffffffffffffffffffffff16148061095d575061095c816109576120d0565b611adf565b5b61099c576040517f08c379a00000000000000000000000000000000000000000000000000000000081526004016109939061418f565b60405180910390fd5b6109a683836120d8565b505050565b6109bc6109b66120d0565b82612191565b6109fb576040517f08c379a00000000000000000000000000000000000000000000000000000000081526004016109f290614221565b60405180910390fd5b610a06838383612226565b505050565b60006009600083815260200190815260200160002060060160009054906101000a900473ffffffffffffffffffffffffffffffffffffffff169050600073ffffffffffffffffffffffffffffffffffffffff168173ffffffffffffffffffffffffffffffffffffffff161415610ab6576040517f08c379a0000000000000000000000000000000000000000000000000000000008152600401610aad9061428d565b60405180910390fd5b8073ffffffffffffffffffffffffffffffffffffffff166108fc349081150290604051600060405180830381858888f19350505050158015610afc573d6000803e3d6000fd5b505050565b6000803411610b45576040517f08c379a0000000000000000000000000000000000000000000000000000000008152600401610b3c906142f9565b60405180910390fd5b6000600b6000600c5481526020019081526020016000209050348160000181905550338160010160006101000a81548173ffffffffffffffffffffffffffffffffffffffff021916908373ffffffffffffffffffffffffffffffffffffffff16021790555060008160040160006101000a81548160ff0219169083151502179055503373ffffffffffffffffffffffffffffffffffffffff167f1b5e39b039983ddb5862b33842ac157179867c6df1a61f69c50465fd14017f6e600c5434604051610c11929190614319565b60405180910390a2600c6000815480929190610c2c90614371565b9190505591505090565b610c51838383604051806020016040528060008152506115fb565b505050565b600080610c6283612520565b9050600073ffffffffffffffffffffffffffffffffffffffff168173ffffffffffffffffffffffffffffffffffffffff161415610cd4576040517f08c379a0000000000000000000000000000000000000000000000000000000008152600401610ccb90614406565b60405180910390fd5b80915050919050565b60008073ffffffffffffffffffffffffffffffffffffffff168273ffffffffffffffffffffffffffffffffffffffff161415610d4e576040517f08c379a0000000000000000000000000000000000000000000000000000000008152600401610d4590614498565b60405180910390fd5b600360008373ffffffffffffffffffffffffffffffffffffffff1673ffffffffffffffffffffffffffffffffffffffff168152602001908152602001600020549050919050565b610d9d61255d565b610da760006125db565b565b6000610db560086126a1565b6000610dc160086126b7565b9050610dcd33826126c5565b610dd781846126e3565b6040518060e001604052808a81526020018981526020018881526020018781526020018681526020018581526020013373ffffffffffffffffffffffffffffffffffffffff16815250600960008381526020019081526020016000206000820151816000019080519060200190610e4f9291906130eb565b50602082015181600101556040820151816002019080519060200190610e769291906130eb565b506060820151816003019080519060200190610e939291906130eb565b506080820151816004015560a0820151816005019080519060200190610eba929190613171565b5060c08201518160060160006101000a81548173ffffffffffffffffffffffffffffffffffffffff021916908373ffffffffffffffffffffffffffffffffffffffff160217905550905050600a60003373ffffffffffffffffffffffffffffffffffffffff1673ffffffffffffffffffffffffffffffffffffffff1681526020019081526020016000208190806001815401808255809150506001900390600052602060002001600090919091909150553373ffffffffffffffffffffffffffffffffffffffff16817f27e9a61ac76621c345615faef54de2559a0e4b84380396cc5957f308ed3fb02c60405160405180910390a380915050979650505050505050565b6000600760009054906101000a900473ffffffffffffffffffffffffffffffffffffffff16905090565b600a602052816000526040600020818154811061100457600080fd5b90600052602060002001600091509150505481565b60606001805461102890614059565b80601f016020809104026020016040519081016040528092919081815260200182805461105490614059565b80156110a15780601f10611076576101008083540402835291602001916110a1565b820191906000526020600020905b81548152906001019060200180831161108457829003601f168201915b5050505050905090565b6110bd6110b66120d0565b838361278e565b5050565b6110c96131d1565b600073ffffffffffffffffffffffffffffffffffffffff166110ea83612520565b73ffffffffffffffffffffffffffffffffffffffff161415611141576040517f08c379a000000000000000000000000000000000000000000000000000000000815260040161113890614504565b60405180910390fd5b600960008381526020019081526020016000206040518060e001604052908160008201805461116f90614059565b80601f016020809104026020016040519081016040528092919081815260200182805461119b90614059565b80156111e85780601f106111bd576101008083540402835291602001916111e8565b820191906000526020600020905b8154815290600101906020018083116111cb57829003601f168201915b505050505081526020016001820154815260200160028201805461120b90614059565b80601f016020809104026020016040519081016040528092919081815260200182805461123790614059565b80156112845780601f1061125957610100808354040283529160200191611284565b820191906000526020600020905b81548152906001019060200180831161126757829003601f168201915b5050505050815260200160038201805461129d90614059565b80601f01602080910402602001604051908101604052809291908181526020018280546112c990614059565b80156113165780601f106112eb57610100808354040283529160200191611316565b820191906000526020600020905b8154815290600101906020018083116112f957829003601f168201915b505050505081526020016004820154815260200160058201805480602002602001604051908101604052809291908181526020016000905b828210156113fa57838290600052602060002001805461136d90614059565b80601f016020809104026020016040519081016040528092919081815260200182805461139990614059565b80156113e65780601f106113bb576101008083540402835291602001916113e6565b820191906000526020600020905b8154815290600101906020018083116113c957829003601f168201915b50505050508152602001906001019061134e565b5050505081526020016006820160009054906101000a900473ffffffffffffffffffffffffffffffffffffffff1673ffffffffffffffffffffffffffffffffffffffff1673ffffffffffffffffffffffffffffffffffffffff16815250509050919050565b600d60009054906101000a900473ffffffffffffffffffffffffffffffffffffffff1673ffffffffffffffffffffffffffffffffffffffff163373ffffffffffffffffffffffffffffffffffffffff16146114ef576040517f08c379a00000000000000000000000000000000000000000000000000000000081526004016114e690614570565b60405180910390fd5b6000600b600084815260200190815260200160002090508060040160009054906101000a900460ff1615611558576040517f08c379a000000000000000000000000000000000000000000000000000000000815260040161154f906145dc565b60405180910390fd5b80600201829080600181540180825580915050600190039060005260206000200160009091909190916101000a81548173ffffffffffffffffffffffffffffffffffffffff021916908373ffffffffffffffffffffffffffffffffffffffff1602179055507f7c29733edbbbc7f83fc8c5fb3231ab4c21421e8da3e7bb05cddc0c2be2d0cf6583836040516115ee9291906145fc565b60405180910390a1505050565b61160c6116066120d0565b83612191565b61164b576040517f08c379a000000000000000000000000000000000000000000000000000000000815260040161164290614221565b60405180910390fd5b611657848484846128fb565b50505050565b600d60009054906101000a900473ffffffffffffffffffffffffffffffffffffffff1673ffffffffffffffffffffffffffffffffffffffff163373ffffffffffffffffffffffffffffffffffffffff16146116ed576040517f08c379a00000000000000000000000000000000000000000000000000000000081526004016116e490614570565b60405180910390fd5b6000600b600083815260200190815260200160002090508060040160009054906101000a900460ff1615611756576040517f08c379a000000000000000000000000000000000000000000000000000000000815260040161174d906145dc565b60405180910390fd5b60008160020180549050116117a0576040517f08c379a000000000000000000000000000000000000000000000000000000000815260040161179790614671565b60405180910390fd5b6000816002018054905082600001546117b991906146c0565b905060005b826002018054905081101561191b5760008360020182815481106117e5576117e46146f1565b5b9060005260206000200160009054906101000a900473ffffffffffffffffffffffffffffffffffffffff1690508360030160008273ffffffffffffffffffffffffffffffffffffffff1673ffffffffffffffffffffffffffffffffffffffff16815260200190815260200160002060009054906101000a900460ff166119075760018460030160008373ffffffffffffffffffffffffffffffffffffffff1673ffffffffffffffffffffffffffffffffffffffff16815260200190815260200160002060006101000a81548160ff0219169083151502179055508073ffffffffffffffffffffffffffffffffffffffff166108fc849081150290604051600060405180830381858888f19350505050158015611905573d6000803e3d6000fd5b505b50808061191390614371565b9150506117be565b5060018260040160006101000a81548160ff0219169083151502179055507f758170a4dddbd53b8a6ae96241c31ef89fe86e9a9f8bd629084c005478efc98b8360405161196891906135bf565b60405180910390a1505050565b606061198082612085565b60006006600084815260200190815260200160002080546119a090614059565b80601f01602080910402602001604051908101604052809291908181526020018280546119cc90614059565b8015611a195780601f106119ee57610100808354040283529160200191611a19565b820191906000526020600020905b8154815290600101906020018083116119fc57829003601f168201915b505050505090506000611a2a612957565b9050600081511415611a40578192505050611a83565b600082511115611a75578082604051602001611a5d92919061475c565b60405160208183030381529060405292505050611a83565b611a7e8461296e565b925050505b919050565b600b6020528060005260406000206000915090508060000154908060010160009054906101000a900473ffffffffffffffffffffffffffffffffffffffff16908060040160009054906101000a900460ff16905083565b6000600560008473ffffffffffffffffffffffffffffffffffffffff1673ffffffffffffffffffffffffffffffffffffffff16815260200190815260200160002060008373ffffffffffffffffffffffffffffffffffffffff1673ffffffffffffffffffffffffffffffffffffffff16815260200190815260200160002060009054906101000a900460ff16905092915050565b6000806060600080600b6000878152602001908152602001600020905080600001548160010160009054906101000a900473ffffffffffffffffffffffffffffffffffffffff16826002018360040160009054906101000a900460ff1681805480602002602001604051908101604052809291908181526020018280548015611c5157602002820191906000526020600020905b8160009054906101000a900473ffffffffffffffffffffffffffffffffffffffff1673ffffffffffffffffffffffffffffffffffffffff1681526020019060010190808311611c07575b505050505091509450945094509450509193509193565b6009602052806000526040600020600091509050806000018054611c8b90614059565b80601f0160208091040260200160405190810160405280929190818152602001828054611cb790614059565b8015611d045780601f10611cd957610100808354040283529160200191611d04565b820191906000526020600020905b815481529060010190602001808311611ce757829003601f168201915b505050505090806001015490806002018054611d1f90614059565b80601f0160208091040260200160405190810160405280929190818152602001828054611d4b90614059565b8015611d985780601f10611d6d57610100808354040283529160200191611d98565b820191906000526020600020905b815481529060010190602001808311611d7b57829003601f168201915b505050505090806003018054611dad90614059565b80601f0160208091040260200160405190810160405280929190818152602001828054611dd990614059565b8015611e265780601f10611dfb57610100808354040283529160200191611e26565b820191906000526020600020905b815481529060010190602001808311611e0957829003601f168201915b5050505050908060040154908060060160009054906101000a900473ffffffffffffffffffffffffffffffffffffffff16905086565b611e6461255d565b600073ffffffffffffffffffffffffffffffffffffffff168173ffffffffffffffffffffffffffffffffffffffff161415611ed4576040517f08c379a0000000000000000000000000000000000000000000000000000000008152600401611ecb906147f2565b60405180910390fd5b611edd816125db565b50565b600d60009054906101000a900473ffffffffffffffffffffffffffffffffffffffff1681565b6060600a60008373ffffffffffffffffffffffffffffffffffffffff1673ffffffffffffffffffffffffffffffffffffffff168152602001908152602001600020805480602002602001604051908101604052809291908181526020018280548015611f9157602002820191906000526020600020905b815481526020019060010190808311611f7d575b50505050509050919050565b600c5481565b60007f80ac58cd000000000000000000000000000000000000000000000000000000007bffffffffffffffffffffffffffffffffffffffffffffffffffffffff1916827bffffffffffffffffffffffffffffffffffffffffffffffffffffffff1916148061206e57507f5b5e139f000000000000000000000000000000000000000000000000000000007bffffffffffffffffffffffffffffffffffffffffffffffffffffffff1916827bffffffffffffffffffffffffffffffffffffffffffffffffffffffff1916145b8061207e575061207d826129d6565b5b9050919050565b61208e81612a40565b6120cd576040517f08c379a00000000000000000000000000000000000000000000000000000000081526004016120c490614406565b60405180910390fd5b50565b600033905090565b816004600083815260200190815260200160002060006101000a81548173ffffffffffffffffffffffffffffffffffffffff021916908373ffffffffffffffffffffffffffffffffffffffff160217905550808273ffffffffffffffffffffffffffffffffffffffff1661214b83610c56565b73ffffffffffffffffffffffffffffffffffffffff167f8c5be1e5ebec7d5bd14f71427d1e84f3dd0314c0f7b2291e5b200ac8c7c3b92560405160405180910390a45050565b60008061219d83610c56565b90508073ffffffffffffffffffffffffffffffffffffffff168473ffffffffffffffffffffffffffffffffffffffff1614806121df57506121de8185611adf565b5b8061221d57508373ffffffffffffffffffffffffffffffffffffffff166122058461084d565b73ffffffffffffffffffffffffffffffffffffffff16145b91505092915050565b8273ffffffffffffffffffffffffffffffffffffffff1661224682610c56565b73ffffffffffffffffffffffffffffffffffffffff161461229c576040517f08c379a000000000000000000000000000000000000000000000000000000000815260040161229390614884565b60405180910390fd5b600073ffffffffffffffffffffffffffffffffffffffff168273ffffffffffffffffffffffffffffffffffffffff16141561230c576040517f08c379a000000000000000000000000000000000000000000000000000000000815260040161230390614916565b60405180910390fd5b6123198383836001612a81565b8273ffffffffffffffffffffffffffffffffffffffff1661233982610c56565b73ffffffffffffffffffffffffffffffffffffffff161461238f576040517f08c379a000000000000000000000000000000000000000000000000000000000815260040161238690614884565b60405180910390fd5b6004600082815260200190815260200160002060006101000a81549073ffffffffffffffffffffffffffffffffffffffff02191690556001600360008573ffffffffffffffffffffffffffffffffffffffff1673ffffffffffffffffffffffffffffffffffffffff168152602001908152602001600020600082825403925050819055506001600360008473ffffffffffffffffffffffffffffffffffffffff1673ffffffffffffffffffffffffffffffffffffffff16815260200190815260200160002060008282540192505081905550816002600083815260200190815260200160002060006101000a81548173ffffffffffffffffffffffffffffffffffffffff021916908373ffffffffffffffffffffffffffffffffffffffff160217905550808273ffffffffffffffffffffffffffffffffffffffff168473ffffffffffffffffffffffffffffffffffffffff167fddf252ad1be2c89b69c2b068fc378daa952ba7f163c4a11628f55a4df523b3ef60405160405180910390a461251b8383836001612a87565b505050565b60006002600083815260200190815260200160002060009054906101000a900473ffffffffffffffffffffffffffffffffffffffff169050919050565b6125656120d0565b73ffffffffffffffffffffffffffffffffffffffff16612583610fbe565b73ffffffffffffffffffffffffffffffffffffffff16146125d9576040517f08c379a00000000000000000000000000000000000000000000000000000000081526004016125d090614982565b60405180910390fd5b565b6000600760009054906101000a900473ffffffffffffffffffffffffffffffffffffffff16905081600760006101000a81548173ffffffffffffffffffffffffffffffffffffffff021916908373ffffffffffffffffffffffffffffffffffffffff1602179055508173ffffffffffffffffffffffffffffffffffffffff168173ffffffffffffffffffffffffffffffffffffffff167f8be0079c531659141344cd1fd0a4f28419497f9722a3daafe3b4186f6b6457e060405160405180910390a35050565b6001816000016000828254019250508190555050565b600081600001549050919050565b6126df828260405180602001604052806000815250612a8d565b5050565b6126ec82612a40565b61272b576040517f08c379a000000000000000000000000000000000000000000000000000000000815260040161272290614a14565b60405180910390fd5b806006600084815260200190815260200160002090805190602001906127529291906130eb565b507ff8e1a15aba9398e019f0b49df1a4fde98ee17ae345cb5f6b5e2c27f5033e8ce78260405161278291906135bf565b60405180910390a15050565b8173ffffffffffffffffffffffffffffffffffffffff168373ffffffffffffffffffffffffffffffffffffffff1614156127fd576040517f08c379a00000000000000000000000000000000000000000000000000000000081526004016127f490614a80565b60405180910390fd5b80600560008573ffffffffffffffffffffffffffffffffffffffff1673ffffffffffffffffffffffffffffffffffffffff16815260200190815260200160002060008473ffffffffffffffffffffffffffffffffffffffff1673ffffffffffffffffffffffffffffffffffffffff16815260200190815260200160002060006101000a81548160ff0219169083151502179055508173ffffffffffffffffffffffffffffffffffffffff168373ffffffffffffffffffffffffffffffffffffffff167f17307eab39ab6107e8899845ad3d59bd9653f200f220920489ca2b5937696c31836040516128ee919061335c565b60405180910390a3505050565b612906848484612226565b61291284848484612ae8565b612951576040517f08c379a000000000000000000000000000000000000000000000000000000000815260040161294890614b12565b60405180910390fd5b50505050565b606060405180602001604052806000815250905090565b606061297982612085565b6000612983612957565b905060008151116129a357604051806020016040528060008152506129ce565b806129ad84612c7f565b6040516020016129be92919061475c565b6040516020818303038152906040525b915050919050565b60007f01ffc9a7000000000000000000000000000000000000000000000000000000007bffffffffffffffffffffffffffffffffffffffffffffffffffffffff1916827bffffffffffffffffffffffffffffffffffffffffffffffffffffffff1916149050919050565b60008073ffffffffffffffffffffffffffffffffffffffff16612a6283612520565b73ffffffffffffffffffffffffffffffffffffffff1614159050919050565b50505050565b50505050565b612a978383612d57565b612aa46000848484612ae8565b612ae3576040517f08c379a0000000000000000000000000000000000000000000000000000000008152600401612ada90614b12565b60405180910390fd5b505050565b6000612b098473ffffffffffffffffffffffffffffffffffffffff16612f75565b15612c72578373ffffffffffffffffffffffffffffffffffffffff1663150b7a02612b326120d0565b8786866040518563ffffffff1660e01b8152600401612b549493929190614b87565b602060405180830381600087803b158015612b6e57600080fd5b505af1925050508015612b9f57506040513d601f19601f82011682018060405250810190612b9c9190614be8565b60015b612c22573d8060008114612bcf576040519150601f19603f3d011682016040523d82523d6000602084013e612bd4565b606091505b50600081511415612c1a576040517f08c379a0000000000000000000000000000000000000000000000000000000008152600401612c1190614b12565b60405180910390fd5b805181602001fd5b63150b7a0260e01b7bffffffffffffffffffffffffffffffffffffffffffffffffffffffff1916817bffffffffffffffffffffffffffffffffffffffffffffffffffffffff191614915050612c77565b600190505b949350505050565b606060006001612c8e84612f98565b01905060008167ffffffffffffffff811115612cad57612cac613611565b5b6040519080825280601f01601f191660200182016040528015612cdf5781602001600182028036833780820191505090505b509050600082602001820190505b600115612d4c578080600190039150507f3031323334353637383961626364656600000000000000000000000000000000600a86061a8153600a8581612d3657612d35614691565b5b0494506000851415612d4757612d4c565b612ced565b819350505050919050565b600073ffffffffffffffffffffffffffffffffffffffff168273ffffffffffffffffffffffffffffffffffffffff161415612dc7576040517f08c379a0000000000000000000000000000000000000000000000000000000008152600401612dbe90614c61565b60405180910390fd5b612dd081612a40565b15612e10576040517f08c379a0000000000000000000000000000000000000000000000000000000008152600401612e0790614ccd565b60405180910390fd5b612e1e600083836001612a81565b612e2781612a40565b15612e67576040517f08c379a0000000000000000000000000000000000000000000000000000000008152600401612e5e90614ccd565b60405180910390fd5b6001600360008473ffffffffffffffffffffffffffffffffffffffff1673ffffffffffffffffffffffffffffffffffffffff16815260200190815260200160002060008282540192505081905550816002600083815260200190815260200160002060006101000a81548173ffffffffffffffffffffffffffffffffffffffff021916908373ffffffffffffffffffffffffffffffffffffffff160217905550808273ffffffffffffffffffffffffffffffffffffffff16600073ffffffffffffffffffffffffffffffffffffffff167fddf252ad1be2c89b69c2b068fc378daa952ba7f163c4a11628f55a4df523b3ef60405160405180910390a4612f71600083836001612a87565b5050565b6000808273ffffffffffffffffffffffffffffffffffffffff163b119050919050565b600080600090507a184f03e93ff9f4daa797ed6e38ed64bf6a1f0100000000000000008310612ff6577a184f03e93ff9f4daa797ed6e38ed64bf6a1f0100000000000000008381612fec57612feb614691565b5b0492506040810190505b6d04ee2d6d415b85acef81000000008310613033576d04ee2d6d415b85acef8100000000838161302957613028614691565b5b0492506020810190505b662386f26fc10000831061306257662386f26fc10000838161305857613057614691565b5b0492506010810190505b6305f5e100831061308b576305f5e100838161308157613080614691565b5b0492506008810190505b61271083106130b05761271083816130a6576130a5614691565b5b0492506004810190505b606483106130d357606483816130c9576130c8614691565b5b0492506002810190505b600a83106130e2576001810190505b80915050919050565b8280546130f790614059565b90600052602060002090601f0160209004810192826131195760008555613160565b82601f1061313257805160ff1916838001178555613160565b82800160010185558215613160579182015b8281111561315f578251825591602001919060010190613144565b5b50905061316d9190613227565b5090565b8280548282559060005260206000209081019282156131c0579160200282015b828111156131bf5782518290805190602001906131af9291906130eb565b5091602001919060010190613191565b5b5090506131cd9190613244565b5090565b6040518060e00160405280606081526020016000801916815260200160608152602001606081526020016000815260200160608152602001600073ffffffffffffffffffffffffffffffffffffffff1681525090565b5b80821115613240576000816000905550600101613228565b5090565b5b80821115613264576000818161325b9190613268565b50600101613245565b5090565b50805461327490614059565b6000825580601f1061328657506132a5565b601f0160209004906000526020600020908101906132a49190613227565b5b50565b6000604051905090565b600080fd5b600080fd5b60007fffffffff0000000000000000000000000000000000000000000000000000000082169050919050565b6132f1816132bc565b81146132fc57600080fd5b50565b60008135905061330e816132e8565b92915050565b60006020828403121561332a576133296132b2565b5b6000613338848285016132ff565b91505092915050565b60008115159050919050565b61335681613341565b82525050565b6000602082019050613371600083018461334d565b92915050565b600081519050919050565b600082825260208201905092915050565b60005b838110156133b1578082015181840152602081019050613396565b838111156133c0576000848401525b50505050565b6000601f19601f8301169050919050565b60006133e282613377565b6133ec8185613382565b93506133fc818560208601613393565b613405816133c6565b840191505092915050565b6000602082019050818103600083015261342a81846133d7565b905092915050565b6000819050919050565b61344581613432565b811461345057600080fd5b50565b6000813590506134628161343c565b92915050565b60006020828403121561347e5761347d6132b2565b5b600061348c84828501613453565b91505092915050565b600073ffffffffffffffffffffffffffffffffffffffff82169050919050565b60006134c082613495565b9050919050565b6134d0816134b5565b82525050565b60006020820190506134eb60008301846134c7565b92915050565b6134fa816134b5565b811461350557600080fd5b50565b600081359050613517816134f1565b92915050565b60008060408385031215613534576135336132b2565b5b600061354285828601613508565b925050602061355385828601613453565b9150509250929050565b600080600060608486031215613576576135756132b2565b5b600061358486828701613508565b935050602061359586828701613508565b92505060406135a686828701613453565b9150509250925092565b6135b981613432565b82525050565b60006020820190506135d460008301846135b0565b92915050565b6000602082840312156135f0576135ef6132b2565b5b60006135fe84828501613508565b91505092915050565b600080fd5b600080fd5b7f4e487b7100000000000000000000000000000000000000000000000000000000600052604160045260246000fd5b613649826133c6565b810181811067ffffffffffffffff8211171561366857613667613611565b5b80604052505050565b600061367b6132a8565b90506136878282613640565b919050565b600067ffffffffffffffff8211156136a7576136a6613611565b5b6136b0826133c6565b9050602081019050919050565b82818337600083830152505050565b60006136df6136da8461368c565b613671565b9050828152602081018484840111156136fb576136fa61360c565b5b6137068482856136bd565b509392505050565b600082601f83011261372357613722613607565b5b81356137338482602086016136cc565b91505092915050565b6000819050919050565b61374f8161373c565b811461375a57600080fd5b50565b60008135905061376c81613746565b92915050565b600067ffffffffffffffff82111561378d5761378c613611565b5b602082029050602081019050919050565b600080fd5b60006137b66137b184613772565b613671565b905080838252602082019050602084028301858111156137d9576137d861379e565b5b835b8181101561382057803567ffffffffffffffff8111156137fe576137fd613607565b5b80860161380b898261370e565b855260208501945050506020810190506137db565b5050509392505050565b600082601f83011261383f5761383e613607565b5b813561384f8482602086016137a3565b91505092915050565b600080600080600080600060e0888a031215613877576138766132b2565b5b600088013567ffffffffffffffff811115613895576138946132b7565b5b6138a18a828b0161370e565b97505060206138b28a828b0161375d565b965050604088013567ffffffffffffffff8111156138d3576138d26132b7565b5b6138df8a828b0161370e565b955050606088013567ffffffffffffffff811115613900576138ff6132b7565b5b61390c8a828b0161370e565b945050608061391d8a828b01613453565b93505060a088013567ffffffffffffffff81111561393e5761393d6132b7565b5b61394a8a828b0161382a565b92505060c088013567ffffffffffffffff81111561396b5761396a6132b7565b5b6139778a828b0161370e565b91505092959891949750929550565b61398f81613341565b811461399a57600080fd5b50565b6000813590506139ac81613986565b92915050565b600080604083850312156139c9576139c86132b2565b5b60006139d785828601613508565b92505060206139e88582860161399d565b9150509250929050565b600082825260208201905092915050565b6000613a0e82613377565b613a1881856139f2565b9350613a28818560208601613393565b613a31816133c6565b840191505092915050565b613a458161373c565b82525050565b613a5481613432565b82525050565b600081519050919050565b600082825260208201905092915050565b6000819050602082019050919050565b6000613a928383613a03565b905092915050565b6000602082019050919050565b6000613ab282613a5a565b613abc8185613a65565b935083602082028501613ace85613a76565b8060005b85811015613b0a5784840389528151613aeb8582613a86565b9450613af683613a9a565b925060208a01995050600181019050613ad2565b50829750879550505050505092915050565b613b25816134b5565b82525050565b600060e0830160008301518482036000860152613b488282613a03565b9150506020830151613b5d6020860182613a3c565b5060408301518482036040860152613b758282613a03565b91505060608301518482036060860152613b8f8282613a03565b9150506080830151613ba46080860182613a4b565b5060a083015184820360a0860152613bbc8282613aa7565b91505060c0830151613bd160c0860182613b1c565b508091505092915050565b60006020820190508181036000830152613bf68184613b2b565b905092915050565b60008060408385031215613c1557613c146132b2565b5b6000613c2385828601613453565b9250506020613c3485828601613508565b9150509250929050565b600067ffffffffffffffff821115613c5957613c58613611565b5b613c62826133c6565b9050602081019050919050565b6000613c82613c7d84613c3e565b613671565b905082815260208101848484011115613c9e57613c9d61360c565b5b613ca98482856136bd565b509392505050565b600082601f830112613cc657613cc5613607565b5b8135613cd6848260208601613c6f565b91505092915050565b60008060008060808587031215613cf957613cf86132b2565b5b6000613d0787828801613508565b9450506020613d1887828801613508565b9350506040613d2987828801613453565b925050606085013567ffffffffffffffff811115613d4a57613d496132b7565b5b613d5687828801613cb1565b91505092959194509250565b6000606082019050613d7760008301866135b0565b613d8460208301856134c7565b613d91604083018461334d565b949350505050565b60008060408385031215613db057613daf6132b2565b5b6000613dbe85828601613508565b9250506020613dcf85828601613508565b9150509250929050565b600081519050919050565b600082825260208201905092915050565b6000819050602082019050919050565b6000613e118383613b1c565b60208301905092915050565b6000602082019050919050565b6000613e3582613dd9565b613e3f8185613de4565b9350613e4a83613df5565b8060005b83811015613e7b578151613e628882613e05565b9750613e6d83613e1d565b925050600181019050613e4e565b5085935050505092915050565b6000608082019050613e9d60008301876135b0565b613eaa60208301866134c7565b8181036040830152613ebc8185613e2a565b9050613ecb606083018461334d565b95945050505050565b613edd8161373c565b82525050565b600060c0820190508181036000830152613efd81896133d7565b9050613f0c6020830188613ed4565b8181036040830152613f1e81876133d7565b90508181036060830152613f3281866133d7565b9050613f4160808301856135b0565b613f4e60a08301846134c7565b979650505050505050565b600081519050919050565b600082825260208201905092915050565b6000819050602082019050919050565b6000613f918383613a4b565b60208301905092915050565b6000602082019050919050565b6000613fb582613f59565b613fbf8185613f64565b9350613fca83613f75565b8060005b83811015613ffb578151613fe28882613f85565b9750613fed83613f9d565b925050600181019050613fce565b5085935050505092915050565b600060208201905081810360008301526140228184613faa565b905092915050565b7f4e487b7100000000000000000000000000000000000000000000000000000000600052602260045260246000fd5b6000600282049050600182168061407157607f821691505b602082108114156140855761408461402a565b5b50919050565b7f4552433732313a20617070726f76616c20746f2063757272656e74206f776e6560008201527f7200000000000000000000000000000000000000000000000000000000000000602082015250565b60006140e7602183613382565b91506140f28261408b565b604082019050919050565b60006020820190508181036000830152614116816140da565b9050919050565b7f4552433732313a20617070726f76652063616c6c6572206973206e6f7420746f60008201527f6b656e206f776e6572206f7220617070726f76656420666f7220616c6c000000602082015250565b6000614179603d83613382565b91506141848261411d565b604082019050919050565b600060208201905081810360008301526141a88161416c565b9050919050565b7f4552433732313a2063616c6c6572206973206e6f7420746f6b656e206f776e6560008201527f72206f7220617070726f76656400000000000000000000000000000000000000602082015250565b600061420b602d83613382565b9150614216826141af565b604082019050919050565b6000602082019050818103600083015261423a816141fe565b9050919050565b7f496e76616c69642063726561746f720000000000000000000000000000000000600082015250565b6000614277600f83613382565b915061428282614241565b602082019050919050565b600060208201905081810360008301526142a68161426a565b9050919050565b7f4d757374207374616b6520736f6d6520746f6b656e0000000000000000000000600082015250565b60006142e3601583613382565b91506142ee826142ad565b602082019050919050565b60006020820190508181036000830152614312816142d6565b9050919050565b600060408201905061432e60008301856135b0565b61433b60208301846135b0565b9392505050565b7f4e487b7100000000000000000000000000000000000000000000000000000000600052601160045260246000fd5b600061437c82613432565b91507fffffffffffffffffffffffffffffffffffffffffffffffffffffffffffffffff8214156143af576143ae614342565b5b600182019050919050565b7f4552433732313a20696e76616c696420746f6b656e2049440000000000000000600082015250565b60006143f0601883613382565b91506143fb826143ba565b602082019050919050565b6000602082019050818103600083015261441f816143e3565b9050919050565b7f4552433732313a2061646472657373207a65726f206973206e6f74206120766160008201527f6c6964206f776e65720000000000000000000000000000000000000000000000602082015250565b6000614482602983613382565b915061448d82614426565b604082019050919050565b600060208201905081810360008301526144b181614475565b9050919050565b7f4d6574616461746120646f6573206e6f74206578697374000000000000000000600082015250565b60006144ee601783613382565b91506144f9826144b8565b602082019050919050565b6000602082019050818103600083015261451d816144e1565b9050919050565b7f4e6f742061646d696e0000000000000000000000000000000000000000000000600082015250565b600061455a600983613382565b915061456582614524565b602082019050919050565b600060208201905081810360008301526145898161454d565b9050919050565b7f416c726561647920646973747269627574656400000000000000000000000000600082015250565b60006145c6601383613382565b91506145d182614590565b602082019050919050565b600060208201905081810360008301526145f5816145b9565b9050919050565b600060408201905061461160008301856135b0565b61461e60208301846134c7565b9392505050565b7f4e6f20636f6e7472696275746f72730000000000000000000000000000000000600082015250565b600061465b600f83613382565b915061466682614625565b602082019050919050565b6000602082019050818103600083015261468a8161464e565b9050919050565b7f4e487b7100000000000000000000000000000000000000000000000000000000600052601260045260246000fd5b60006146cb82613432565b91506146d683613432565b9250826146e6576146e5614691565b5b828204905092915050565b7f4e487b7100000000000000000000000000000000000000000000000000000000600052603260045260246000fd5b600081905092915050565b600061473682613377565b6147408185614720565b9350614750818560208601613393565b80840191505092915050565b6000614768828561472b565b9150614774828461472b565b91508190509392505050565b7f4f776e61626c653a206e6577206f776e657220697320746865207a65726f206160008201527f6464726573730000000000000000000000000000000000000000000000000000602082015250565b60006147dc602683613382565b91506147e782614780565b604082019050919050565b6000602082019050818103600083015261480b816147cf565b9050919050565b7f4552433732313a207472616e736665722066726f6d20696e636f72726563742060008201527f6f776e6572000000000000000000000000000000000000000000000000000000602082015250565b600061486e602583613382565b915061487982614812565b604082019050919050565b6000602082019050818103600083015261489d81614861565b9050919050565b7f4552433732313a207472616e7366657220746f20746865207a65726f2061646460008201527f7265737300000000000000000000000000000000000000000000000000000000602082015250565b6000614900602483613382565b915061490b826148a4565b604082019050919050565b6000602082019050818103600083015261492f816148f3565b9050919050565b7f4f776e61626c653a2063616c6c6572206973206e6f7420746865206f776e6572600082015250565b600061496c602083613382565b915061497782614936565b602082019050919050565b6000602082019050818103600083015261499b8161495f565b9050919050565b7f45524337323155524953746f726167653a2055524920736574206f66206e6f6e60008201527f6578697374656e7420746f6b656e000000000000000000000000000000000000602082015250565b60006149fe602e83613382565b9150614a09826149a2565b604082019050919050565b60006020820190508181036000830152614a2d816149f1565b9050919050565b7f4552433732313a20617070726f766520746f2063616c6c657200000000000000600082015250565b6000614a6a601983613382565b9150614a7582614a34565b602082019050919050565b60006020820190508181036000830152614a9981614a5d565b9050919050565b7f4552433732313a207472616e7366657220746f206e6f6e20455243373231526560008201527f63656976657220696d706c656d656e7465720000000000000000000000000000602082015250565b6000614afc603283613382565b9150614b0782614aa0565b604082019050919050565b60006020820190508181036000830152614b2b81614aef565b9050919050565b600081519050919050565b600082825260208201905092915050565b6000614b5982614b32565b614b638185614b3d565b9350614b73818560208601613393565b614b7c816133c6565b840191505092915050565b6000608082019050614b9c60008301876134c7565b614ba960208301866134c7565b614bb660408301856135b0565b8181036060830152614bc88184614b4e565b905095945050505050565b600081519050614be2816132e8565b92915050565b600060208284031215614bfe57614bfd6132b2565b5b6000614c0c84828501614bd3565b91505092915050565b7f4552433732313a206d696e7420746f20746865207a65726f2061646472657373600082015250565b6000614c4b602083613382565b9150614c5682614c15565b602082019050919050565b60006020820190508181036000830152614c7a81614c3e565b9050919050565b7f4552433732313a20746f6b656e20616c7265616479206d696e74656400000000600082015250565b6000614cb7601c83613382565b9150614cc282614c81565b602082019050919050565b60006020820190508181036000830152614ce681614caa565b905091905056fea26469706673582212200b527d9ff06d257d5cb02ea55b4c5943558b0466fc808a43725716035dba09dc64736f6c63430008090033",
  "linkReferences": {},
  "deployedLinkReferences": {}
}